:020000040000FA
:020000000528D1
:040002000034003492
:08000800202883160313880170
:100010008316031306158615061683160313071099
:1000200087100711871107128712831203133130CB
:1000300090008F018E010C100C14831203136128A1
:10004000831203130C10831203130900F930F0001C
:100050000000F00B28280800F1002620F10B2D28C5
:10006000080088162620881226200800F500F0399E
:100070008800741A081631202620F50E7508F0390C
:100080008800741A081631202620080064302C20BD
:10009000F030F40030308800312005302C20312041
:1000A0002620312008123120283036200830362012
:1000B0000130362006303620803036200C30362095
:1000C0000800831203130714871007110130D400AE
:1000D000D4010330F7002C202C2046207412F2218A
:1000E000323085200E303620F70B6B288E28B90071
:1000F0000000000000000000000000000000000000
:1001000000000000B90B78280800C000FA30772002
:10011000772077207720C00B8728080083120313ED
:1001200087110712871287194614871D4610071A70
:100130004714071E4710871A4914871E4910831257
:10014000031346188711461C871547180712471CCA
:10015000071649188712491C8716000000008312F1
:10016000031346188715461C871147180716471CA6
:10017000071249188716491C87120000000000006A
:1001800000000000000000000000000000008312DA
:10019000031346188711461C871547180712471C7A
:1001A000071649188712491C87168F018E010C10FB
:1001B0008312031346188715461C87114718071624
:1001C000471C071249188716491C8712831203130C
:1001D0005408013C031DEF28061DE828F92854089F
:1001E000023C031DF628861DE828F9285408061E3F
:1001F000E8288F018E010C105408013C031D0329CF
:100200000619FC280D295408023C031D0A298619E9
:10021000FC280D295408061AFC280E08B2000F0805
:10022000B3000730C400D201C501331C19292330A3
:10023000C507B31C1F29331826294730C507331DAE
:100240002B29331C29298C30C5072B293D30C507A4
:100250002B298230C50744080310C50AB202031DCA
:100260003229372903182D29C5034408B2079622DD
:100270003230852032308520D30146084618531489
:1002800047084718D314490849185315D30A531C73
:10029000461053184614D31C4710D3184714531D47
:1002A0004910531949148312031346188715461C25
:1002B000871147180716471C071249188716491C4B
:1002C00087125308073C03189F285408033A031D5C
:1002D0006C290130D40082295408013ED40054080E
:1002E000023C031D79298312031307108714071199
:1002F00082295408033C031D82298312031307102B
:10030000871007158E2883292C202C204620B30126
:10031000B4017412013036200C3036208030362083
:100320000530B4003508C500D821B421B301B401AB
:100330000130B4003608C500D821B421B301B4019E
:100340007412C03036200030B4003708C500D82100
:10035000B421B301B4010230B3000530B400380851
:10036000C500D821B421080074165530362053300A
:10037000362033080319BF29303E7416362034085E
:10038000303E741636203A30362052080319CB29F5
:10039000303E7416362050080319D129303E7416A9
:1003A00036205108303E74163620203036200800A2
:1003B0004508D100D00103140A30D102D00A031835
:1003C000DD29D107D0035108093C0318EA29093077
:1003D000D102D00A5008093C031808000930D002A5
:1003E000D20A0800803036201C3036201C303620DF
:1003F00074162030362020303620573036206530B5
:1004000036206C303620633036206F3036206D3029
:100410003620653036207412C030362074165330C2
:1004200036204630362052303620303036203430B8
:100430003620203036204D3036206F303620643064
:100440003620753036206C303620653036207330DB
:10045000362008006008B500B601B701B8013508BC
:100460003608370838086108622262086222630889
:1004700062226408622265086222310862226708EB
:100480006222680862226908622232086222300809
:1004900062222008622221086222220862222308A6
:1004A0006222240862222508622226086222270886
:1004B00062221908622228086222010862222908A1
:1004C00062229122B9003508390203187C2A3908C2
:1004D000B900360839020318852A3908B9003708E7
:1004E000390203188C2A3908B90038083902031C6C
:1004F00008003908B80008003708B8003608B70007
:100500003508B6003908B50008003708B8003608C5
:10051000B7003908B60008003708B8003908B70036
:100520000800350836083708380808005408003C29
:100530000319F7225408013C0319FD225408023C18
:10054000031903235408033C031909235408043CEA
:1005500003190F235408053C031915235408063CBE
:1005600003191B235408073C031921235408083C92
:10057000031927235408093C03192D2354080A3C66
:100580000319332354080B3C0319392354080C3C3A
:1005900003193F2354080D3C0319452354080E3C0E
:1005A00003194B2354080F3C031951235408103CE2
:1005B000031957235408113C03195D235408123CB6
:1005C000031963235408133C031969235408143C8A
:1005D00003196F235408153C031975235408163C5E
:1005E00003197B235408173C03198123080045088D
:1005F000E0005408013ED40008004508E10054081A
:10060000013ED40008004508E2005408013ED40031
:1006100008004508E3005408013ED40008004508DE
:10062000E4005408013ED40008004508E5005408E1
:10063000013ED40008004508B1005408013ED40032
:1006400008004508E7005408013ED40008004508AA
:10065000E8005408013ED40008004508E9005408A9
:10066000013ED40008004508B2005408013ED40001
:1006700008004508B0005408013ED40008004508B1
:10068000A0005408013ED40008004508A100540809
:10069000013ED40008004508A2005408013ED400E1
:1006A00008004508A3005408013ED400080045088E
:1006B000A4005408013ED40008004508A5005408D1
:1006C000013ED40008004508A6005408013ED400AD
:1006D00008004508A7005408013ED400080045085A
:1006E00099005408013ED40008004508A8005408A9
:1006F000013ED4000800450881005408013ED400A2
:1007000008004508A9005408013ED40088230800C9
:040710002A228421F4
:02400E00313748
:00000001FF
